:100000000C9446000C9465000C9465000C946500FB
:100010000C9465000C9465000C9465000C946500CC
:100020000C9465000C9465000C9465000C946500BC
:100030000C9465000C9465000C9465000C946500AC
:100040000C9465000C9465000C9465000C9465009C
:100050000C9465000C9465000C9465000C9465008C
:100060000C9465000C9465000C9465000C9465007C
:100070000C9465000C9465000C9465000C9465006C
:100080000C9465000C9465000C94650011241FBE4F
:10009000CFEFD0E4DEBFCDBF11E0A0E0B1E0E4E3FC
:1000A000F2E000E00BBF02C007900D92AE30B10746
:1000B000D9F711E0AEE0B1E001C01D92A031B10767
:1000C000E1F70E9400010C9418010C940000CF93FA
:1000D000DF9300D01F92CDB7DEB789837B836A831D
:1000E00089818A3031F48A819B81BC018DE00E9434
:1000F000670080EC90E0FC018081882F90E08072A6
:1001000099270097B1F386EC90E02981FC012083C8
:1001100080E090E00F900F900F90DF91CF910895C5
:10012000CF93DF93CDB7DEB780910E0190910F0191
:1001300081309105A9F08130910520F08230910540
:1001400019F136C080E290E0FC018081813039F401
:1001500081E090E090930F0180930E012EC02DC09E
:1001600080E290E0FC018081813039F482E090E00F
:1001700090930F0180930E0120C081E090E0909356
:100180000F0180930E0119C080E290E0FC01808194
:10019000813039F481E090E090930F0180930E015B
:1001A0000CC082E090E090930F0180930E0105C097
:1001B00010920F0110920E01000080910E0190919B
:1001C0000F018130910569F08130910520F0823076
:1001D000910569F012C085E290E021E0FC012083E6
:1001E0000CC085E290E021E0FC01208306C085E29E
:1001F00090E022E0FC0120830000DF91CF91089580
:10020000CF93DF93CDB7DEB781E290E0FC0110829F
:1002100082E290E0FC01108284E290E02FEFFC018A
:10022000208385E290E0FC0110820E949000FDCFC7
:04023000F894FFCF70
:0E023400000000020000000067000000000053
:00000001FF
