:100000000C9446000C9465000C9465000C946500FB
:100010000C9465000C9465000C9465000C946500CC
:100020000C9465000C9465000C9465000C946500BC
:100030000C9465000C940C010C9465000C94650004
:100040000C9465000C9465000C9465000C9465009C
:100050000C9465000C9465000C9465000C9465008C
:100060000C9465000C9465000C9465000C9465007C
:100070000C9465000C9465000C9465000C9465006C
:100080000C9465000C9465000C94650011241FBE4F
:10009000CFEFD0E4DEBFCDBF11E0A0E0B1E0ECEFE8
:1000A000FAE000E00BBF02C007900D92A831B10743
:1000B000D9F721E0A8E1B1E001C01D92A034B20758
:1000C000E1F70E94BB030C947C050C940000CF93D5
:1000D000DF9300D01F92CDB7DEB789837B836A831D
:1000E00089818A3031F48A819B81BC018DE00E9434
:1000F000670080EC90E0FC018081882F90E08072A6
:100100009927892BB1F386EC90E02981FC012083AB
:1001100080E090E00F900F900F90DF91CF910895C5
:10012000CF93DF9300D000D0CDB7DEB769837A8359
:100130008B839C8389819A81AB81BC8180930E01E2
:1001400090930F01A0931001B093110180910E01C3
:1001500090910F01A0911001B091110180931901AC
:1001600090931A01A0931B01B0931C0100000F9003
:100170000F900F900F90DF91CF910895CF93DF9361
:10018000CDB7DEB781E890E02BE0FC01208388E862
:1001900090E02DE730E0FC01318320838FE690E092
:1001A00022E0FC01208384E890E0FC0111821082AF
:1001B00080910E0190910F01A0911001B091110159
:1001C0008093190190931A01A0931B01B0931C0115
:1001D0008FE590E02FE530E0F90120812068FC01F7
:1001E00020830000DF91CF910895CF93DF93CDB7A7
:1001F000DEB781E890E0FC0110820000DF91CF9132
:100200000895CF93DF93CDB7DEB781E080931801D7
:100210000000DF91CF9108951F920F9200905F0030
:100220000F92112400905B000F922F933F934F93F6
:100230005F936F937F938F939F93AF93BF93EF934E
:10024000FF93CF93DF93CDB7DEB7809119019091E3
:100250001A01A0911B01B0911C010197A109B109DC
:100260008093190190931A01A0931B01B0931C0174
:100270008091190190911A01A0911B01B0911C016C
:10028000892B8A2B8B2B91F40E94010180910E0106
:1002900090910F01A0911001B0911101809319016B
:1002A00090931A01A0931B01B0931C010000DF91F1
:1002B000CF91FF91EF91BF91AF919F918F917F91DE
:1002C0006F915F914F913F912F910F9000925B0042
:1002D0000F9000925F000F901F901895CF93DF93BF
:1002E00000D01F92CDB7DEB789836A834B838B81A1
:1002F000882371F08A81282F30E081E090E002C0ED
:10030000880F991F2A95E2F7982F8981892B0EC0B3
:100310008A81282F30E081E090E002C0880F991F89
:100320002A95E2F7982F9095898189230F900F9055
:100330000F90DF91CF910895CF93DF9300D0CDB789
:10034000DEB789836A838A81282F30E081E090E0DC
:1003500002C0880F991F2A95E2F7982F8981892377
:100360000F900F90DF91CF9108950F931F93CF932C
:10037000DF93CDB7DEB708E210E040E064E08FEF36
:100380000E946E01F8018083000086E290E0FC018B
:100390008081809560E00E949C01882311F081E3B8
:1003A000D3C086E290E0FC018081809561E00E94EC
:1003B0009C01882311F084E3C7C086E290E0FC0131
:1003C0008081809562E00E949C01882311F087E380
:1003D000BBC086E290E0FC018081809563E00E94D2
:1003E0009C01882311F08AE2AFC008E210E040E0EF
:1003F00065E08FEF0E946E01F8018083000086E2C5
:1004000090E0FC018081809560E00E949C0188233F
:1004100011F082E399C086E290E0FC018081809532
:1004200061E00E949C01882311F085E38DC086E283
:1004300090E0FC018081809562E00E949C0188230D
:1004400011F088E381C086E290E0FC018081809514
:1004500063E00E949C01882311F080E375C008E2EC
:1004600010E040E066E08FEF0E946E01F8018083AB
:10047000000086E290E0FC018081809560E00E94AF
:100480009C01882311F083E35FC086E290E0FC01C9
:100490008081809561E00E949C01882311F086E3B1
:1004A00053C086E290E0FC018081809562E00E946A
:1004B0009C01882311F089E347C086E290E0FC01AB
:1004C0008081809563E00E949C01882311F083E283
:1004D0003BC008E210E040E067E08FEF0E946E0151
:1004E000F8018083000086E290E0FC018081809525
:1004F00060E00E949C01882311F081E425C086E21F
:1005000090E0FC018081809561E00E949C0188233D
:1005100011F082E419C086E290E0FC0180818095B0
:1005200062E00E949C01882311F083E40DC086E202
:1005300090E0FC018081809563E00E949C0188230B
:1005400011F084E401C080E0DF91CF911F910F9101
:100550000895CF93DF93CDB7DEB72C970FB6F894FD
:10056000DEBF0FBECDBF6D837E838F8398872987C3
:100570003A874B875C878D819E81AF81B8852985BD
:100580003A854B855C85BC01CD010E945A05DC0192
:10059000CB0189839A83AB83BC8389819A81AB81A8
:1005A000BC81892B8A2B8B2B29F489859A85AB8575
:1005B000BC8511C089859A85AB85BC858D839E835A
:1005C000AF83B88789819A81AB81BC8189879A87FB
:1005D000AB87BC87D0CFBC01CD012C960FB6F89469
:1005E000DEBF0FBECDBFDF91CF910895CF93DF93D4
:1005F00000D01F92CDB7DEB79B838A830E94B501DE
:1006000089838A819B818130910551F082309105E7
:10061000A1F0892BF9F481E090E09B838A831DC0CF
:100620008981882329F481E090E09B838A8315C027
:1006300082E090E09B838A8310C08981882329F41B
:1006400081E090E09B838A8308C082E090E09B83F6
:100650008A8303C01B821A8200008A819B818130B9
:10066000910519F0029721F007C010921E0104C0F5
:1006700081E080931E0100008A819B810F900F9082
:100680000F90DF91CF910895CF93DF9300D0CDB736
:10069000DEB79A83898389819A818130910551F0EF
:1006A00082309105A9F0892B09F581E090E09A83C9
:1006B00089831FC080911E01882329F082E090E089
:1006C0009A83898316C081E090E09A83898311C060
:1006D00080911E01882329F082E090E09A8389832B
:1006E00008C081E090E09A83898303C01A8219824E
:1006F000000089819A818130910541F08230910515
:1007000041F0892B51F410921D0107C010921D0178
:1007100004C081E080931D01000089819A810F90BF
:100720000F90DF91CF910895CF93DF9300D01F9268
:10073000CDB7DEB79B838A838A819B81892B19F48D
:100740001B821A8203C01B821A8200008A819B814D
:10075000892B21F480911D018983000085E290E0BE
:100760002981FC0120838A819B810F900F900F903B
:10077000DF91CF9108950F931F93CF93DF93CDB760
:10078000DEB72F970FB6F894DEBF0FBECDBF81E264
:1007900090E0FC01108282E290E02FEFFC012083C8
:1007A00084E290E02FEFFC01208385E290E0FC01E1
:1007B000108287E290E020EFFC01208388E290E045
:1007C0002FE0FC01208386E0E2E1F1E0DE011A96F1
:1007D00001900D928A95E1F783E090E098878F83EE
:1007E0008FEF8987898580931F0184E690E0A0E0E0
:1007F000B0E08093200190932101A0932201B09357
:1008000023018091200190912101A0912201B091BA
:1008100023018093240190932501A0932601B09396
:10082000270186EF92E09093290180932801898522
:1008300080932A0184E690E0A0E0B0E080932B0151
:1008400090932C01A0932D01B0932E0180912B0148
:1008500090912C01A0912D01B0912E0180932F0138
:1008600090933001A0933101B093320184E493E07E
:10087000909334018093330189858093350184E618
:1008800090E0A0E0B0E08093360190933701A09310
:100890003801B09339018091360190913701A091D0
:1008A0003801B091390180933A0190933B01A093B4
:1008B0003C01B0933D0184E993E090933F01809324
:1008C0003E018A859B85FC0181819281A381B4814F
:1008D0008B839C83AD83BE8381E090E09A83898380
:1008E00025C089819A81880F991F9E012F5F3F4FF4
:1008F000820F931F0996FC0180819181FC01218167
:100900003281438154818B819C81AD81BE81BC0148
:10091000CD010E94A902DC01CB018B839C83AD83B6
:10092000BE8389819A8101969A83898329813A813C
:100930008F81988528173907A0F28B819C81AD8122
:10094000BE81BC01CD010E9490000E94BE001A82AF
:100950001982A0C089819A81880F991F9E012F5FFB
:100960003F4F820F931F0996FC0180819181FC010A
:10097000258136814781508589819A81880F991F09
:10098000BE016F5F7F4F860F971F0996FC01808124
:100990009181FC0181819281A381B481281739075B
:1009A0004A075B0709F045C089819A81880F991F22
:1009B0009E012F5F3F4F820F931F0996FC0100811C
:1009C000118189819A81880F991F9E012F5F3F4F66
:1009D000820F931F0996FC0180819181FC01218582
:1009E000328589819A81880F991FAE014F5F5F4FD1
:1009F000840F951F0996FC0180819181FC01808103
:100A0000082E000C990BF9010995F8018083898162
:100A10009A81880F991F9E012F5F3F4F820F931F6E
:100A20000996FC0180819181FC0115821682178252
:100A3000108689819A81880F991F9E012F5F3F4FF1
:100A4000820F931F0996FC016081718189819A81CF
:100A5000880F991F9E012F5F3F4F820F931F0996AA
:100A6000FC0180819181FC0125813681478150857F
:100A70008B819C81AD81BE81820F931FA41FB51F06
:100A8000FB0185839683A783B08789819A8101962C
:100A90009A83898329813A818F819885281739071C
:100AA00008F458CF0000809118018823E1F31092D8
:100AB00018014DCFA1E21A2EAA1BBB1BFD010DC0D0
:100AC000AA1FBB1FEE1FFF1FA217B307E407F507FE
:100AD00020F0A21BB30BE40BF50B661F771F881FDA
:100AE000991F1A9469F760957095809590959B0170
:0C0AF000AC01BD01CF010895F894FFCFC8
:100AFC000000000200000000670000000000010080
:080B0C0000001F012A01350160
:00000001FF
