:100000000C9446000C945D000C945D000C945D0013
:100010000C945D000C945D000C945D000C945D00EC
:100020000C945D000C945D000C945D000C945D00DC
:100030000C945D000C945D000C945D000C945D00CC
:100040000C945D000C945D000C945D000C945D00BC
:100050000C945D000C945D000C945D000C945D00AC
:100060000C945D000C945D000C945D000C945D009C
:100070000C945D000C945D000C945D000C945D008C
:100080000C945D000C945D000C945D0011241FBE67
:10009000CFEFD0E4DEBFCDBF11E0A0E0B1E0E6EBF2
:1000A000F1E000E00BBF02C007900D92AE30B10747
:1000B000D9F70E9488000C94D9000C940000CF93CB
:1000C000DF9300D01F92CDB7DEB789837B836A832D
:1000D00089818A3031F48A819B81BC018DE00E9444
:1000E0005F0080EC90E0FC018081882F90E08072BE
:1000F00099270097B1F386EC90E02981FC012083D9
:1001000080E090E00F900F900F90DF91CF910895D5
:10011000CF93DF9300D01F92CDB7DEB781E290E09E
:10012000FC01108282E290E0FC01108284E290E007
:10013000FC01108285E290E0FC01108284E290E0F4
:100140002FEFFC01208388E290E0FC0110821982ED
:100150001A8281E08B83198228C08B81882349F021
:1001600080E290E0FC018081882319F021E030E0FA
:1001700002C020E030E08B81882349F083E290E0E8
:10018000FC018081882319F081E090E002C080E0CA
:1001900090E0820F931F982F8981890F89838B812B
:1001A000880F8B838A818F5F8A838A818830A8F247
:0601B000CFCFF894FFCF51
:0E01B60000000002000000005F0000000000DA
:00000001FF
