:100000000C9446000C9465000C9465000C946500FB
:100010000C9465000C9465000C9465000C946500CC
:100020000C9465000C9465000C9465000C946500BC
:100030000C9465000C94DE000C9465000C94650033
:100040000C9465000C9465000C9465000C9465009C
:100050000C9465000C9465000C9465000C9465008C
:100060000C9465000C9465000C9465000C9465007C
:100070000C9465000C9465000C9465000C9465006C
:100080000C9465000C9465000C94650011241FBE4F
:10009000CFEFD0E4DEBFCDBF11E0A0E0B1E0E2EEF3
:1000A000F8E000E00BBF02C007900D92A831B10745
:1000B000D9F721E0A8E1B1E001C01D92A732B20753
:1000C000E1F70E94BD030C946F040C940000CF93E1
:1000D000DF9300D01F92CDB7DEB789837B836A831D
:1000E00089818A3031F48A819B81BC018DE00E9434
:1000F000670080EC90E0FC018081882F90E08072A6
:100100009927892BB1F386EC90E02981FC012083AB
:1001100080E090E00F900F900F90DF91CF910895C5
:10012000CF93DF93CDB7DEB781E080931801000055
:10013000DF91CF910895CF93DF93CDB7DEB781E8FC
:1001400090E02BE0FC01208388E890E02DE730E090
:10015000FC01318320838FE690E022E0FC012083C4
:1001600084E890E0FC011182108280910E01909150
:100170000F01A0911001B09111018093190190938A
:100180001A01A0931B01B0931C018FE590E02FE5AD
:1001900030E0F90120812068FC0120830000DF911C
:1001A000CF910895CF93DF93CDB7DEB781E890E08C
:1001B000FC0110820000DF91CF9108951F920F92F1
:1001C00000905F000F92112400905B000F922F931C
:1001D0003F934F935F936F937F938F939F93AF93CF
:1001E000BF93EF93FF93CF93DF93CDB7DEB78091AB
:1001F000190190911A01A0911B01B0911C01019766
:10020000A109B1098093190190931A01A0931B01D0
:10021000B0931C018091190190911A01A0911B01CA
:10022000B0911C01892B8A2B8B2B91F40E9490009A
:1002300080910E0190910F01A0911001B0911101D8
:100240008093190190931A01A0931B01B0931C0194
:100250000000DF91CF91FF91EF91BF91AF919F91FE
:100260008F917F916F915F914F913F912F910F905F
:1002700000925B000F9000925F000F901F90189506
:10028000CF93DF9300D000D0CDB7DEB769837A83F8
:100290008B839C8389819A81AB81BC8180930E0181
:1002A00090930F01A0931001B093110180910E0162
:1002B00090910F01A0911001B0911101809319014B
:1002C00090931A01A0931B01B0931C0100000F90A2
:1002D0000F900F900F90DF91CF910895CF93DF9300
:1002E00000D01F92CDB7DEB789836A834B838B81A1
:1002F000882371F08A81282F30E081E090E002C0ED
:10030000880F991F2A95E2F7982F8981892B0EC0B3
:100310008A81282F30E081E090E002C0880F991F89
:100320002A95E2F7982F9095898189230F900F9055
:100330000F90DF91CF910895CF93DF93CDB7DEB7C4
:1003400080912501909126018130910551F18130F4
:10035000910540F08230910509F44AC0039709F4F1
:100360006EC094C080911D0140E060E00E946E016B
:1003700080931D0180911D0140E061E00E946E01AB
:1003800080931D0180911D0140E062E00E946E019A
:1003900080931D0181E090E09093260180932501D8
:1003A00075C080911D0140E060E00E946E01809365
:1003B0001D0180911D0140E061E00E946E0180936B
:1003C0001D0180911D0140E062E00E946E0180935A
:1003D0001D0180911D0141E060E00E946E0180934B
:1003E0001D0182E090E090932601809325014EC08C
:1003F00080911D0140E060E00E946E0180931D012C
:1004000080911D0140E061E00E946E0180931D011A
:1004100080911D0140E062E00E946E0180931D0109
:1004200080911D0141E061E00E946E0180931D01F9
:1004300083E090E0909326018093250127C080916E
:100440001D0140E060E00E946E0180931D018091DB
:100450001D0140E061E00E946E0180931D018091CA
:100460001D0140E062E00E946E0180931D018091B9
:100470001D0141E062E00E946E0180931D0181E058
:1004800090E0909326018093250100000000DF9109
:10049000CF910895CF93DF93CDB7DEB7809121013F
:1004A0009091220181309105A9F08130910518F0D9
:1004B0000297F9F02DC080911D0140E063E00E9499
:1004C0006E0180931D0182E090E090932201809361
:1004D00021011EC080911D0140E063E00E946E0179
:1004E00080931D0182E090E090932201809321018E
:1004F0000FC080911D0141E063E00E946E01809376
:100500001D0181E090E09093220180932101000081
:100510000000DF91CF910895CF93DF93CDB7DEB781
:1005200080912301909124018130910509F47EC0CE
:100530008130910540F08230910509F4D0C00397D5
:1005400009F4E5C0FCC010921F0110921E0180E268
:1005500090E0FC018081882F90E0809590958770D5
:100560009927049739F481E090E0909324018093D7
:100570002301E5C080E290E0FC018081882F90E0BB
:1005800080959095877099270197E9F480912001D3
:100590008F5F80932001209120018BEA289F812D7D
:1005A0001124982F96959695892F880F890F880F7B
:1005B000922F981B9093200182E090E09093240169
:1005C00080932301BCC080E290E0FC018081882FF1
:1005D00090E08095909587709927029711F580910A
:1005E0002001815080932001809120018A5F8093B7
:1005F0002001209120018BEA289F812D1124982F22
:1006000096959695892F880F890F880F922F981BA2
:100610009093200183E090E0909324018093230144
:100620008EC0109224011092230189C08091200174
:10063000882F90E08E5E9E4FFC01908180911F017B
:10064000891720F481E080931E0115C080911F015D
:10065000282F30E080912001882F90E08E5E9E4F01
:10066000FC018081882F90E0880F991F2817390797
:1006700014F410921E0180911F018F5F80931F015F
:1006800080911F01482F50E080912001882F90E039
:100690008E5E9E4FFC018081882F90E09C01220F8E
:1006A000331FCA01B9010E94470480931F0180E2F1
:1006B00090E0FC018081882F90E080959095877074
:1006C0009927049739F481E090E090932401809376
:1006D000230135C0109224011092230130C080E222
:1006E00090E0FC018081882F90E080959095877044
:1006F0009927019739F482E090E090932401809348
:1007000023011DC0109224011092230118C080E221
:1007100090E0FC018081882F90E080959095877013
:100720009927029739F483E090E090932401809315
:10073000230104C010922401109223010000000044
:10074000DF91CF910895CF93DF93CDB7DEB785E2E8
:1007500090E020911E01222F30E022953295307FCB
:100760003227207F3227322F20911D01232BFC01BD
:1007700020830000DF91CF910895CF93DF93CDB711
:10078000DEB72C970FB6F894DEBF0FBECDBF81E267
:1007900090E0FC01108282E290E02FEFFC012083C8
:1007A00084E290E02FEFFC01208385E290E0FC01E1
:1007B000108261E070E080E090E00E9440010E94C1
:1007C0009B00109226011092250110922201109296
:1007D0002101109224011092230119821A821B8296
:1007E0001C821D821E821F82188681E090E0A0E09C
:1007F000B0E089879A87AB87BC8789819A81AB8172
:10080000BC818C329140A105B10530F00E949C0161
:1008100019821A821B821C828D819E81AF81B885CC
:10082000883E9340A105B10530F00E944A021D8226
:100830001E821F8218860E948C020E94A303000061
:10084000809118018823E1F31092180129813A81DF
:100850004B815C8189859A85AB85BC85820F931F0E
:10086000A41FB51F89839A83AB83BC832D813E81EE
:100870004F81588589859A85AB85BC85820F931FEA
:10088000A41FB51F8D839E83AF83B887B6CF97FB18
:10089000072E16F4009407D077FD09D00E945B0460
:1008A00007FC05D03EF4909581959F4F0895709573
:1008B00061957F4F0895AA1BBB1B51E107C0AA1F7A
:1008C000BB1FA617B70710F0A61BB70B881F991FF1
:1008D0005A95A9F780959095BC01CD010895F8949B
:0208E000FFCF48
:1008E200000000020000000067000000000001009C
:0808F2000000010203040506E9
:00000001FF
