:100000000C9446000C9465000C9465000C946500FB
:100010000C9465000C9465000C9465000C946500CC
:100020000C9465000C9465000C9465000C946500BC
:100030000C9465000C94A0010C9465000C94650070
:100040000C9465000C9465000C9465000C9465009C
:100050000C9465000C9465000C9465000C9465008C
:100060000C9465000C9465000C9465000C9465007C
:100070000C9465000C9465000C9465000C9465006C
:100080000C9465000C9465000C94650011241FBE4F
:10009000CFEFD0E4DEBFCDBF11E0A0E0B1E0E6EAF3
:1000A000F7E000E00BBF02C007900D92A631B10748
:1000B000D9F721E0A6E1B1E001C01D92A632B20756
:1000C000E1F70E9469020C94D1030C940000CF93D5
:1000D000DF9300D01F92CDB7DEB789837B836A831D
:1000E00089818A3031F48A819B81BC018DE00E9434
:1000F000670080EC90E0FC018081882F90E08072A6
:100100009927892BB1F386EC90E02981FC012083AB
:1001100080E090E00F900F900F90DF91CF910895C5
:10012000CF93DF93CDB7DEB72C970FB6F894DEBF31
:100130000FBECDBF6D837E838F83988729873A87D3
:100140004B875C878D819E81AF81B88529853A85F3
:100150004B855C85BC01CD010E94AF03DC01CB0166
:1001600089839A83AB83BC8389819A81AB81BC816B
:10017000892B8A2B8B2B29F489859A85AB85BC85A5
:1001800011C089859A85AB85BC858D839E83AF839D
:10019000B88789819A81AB81BC8189879A87AB872F
:1001A000BC87D0CFBC01CD012C960FB6F894DEBF32
:1001B0000FBECDBFDF91CF910895CF93DF9300D0D5
:1001C0001F92CDB7DEB789836A834B838B818823E7
:1001D00071F08A81282F30E081E090E002C0880F22
:1001E000991F2A95E2F7982F8981892B0EC08A8161
:1001F000282F30E081E090E002C0880F991F2A95F7
:10020000E2F7982F9095898189230F900F900F9096
:10021000DF91CF910895CF93DF9300D0CDB7DEB7B4
:1002200089836A838A81282F30E081E090E002C0D0
:10023000880F991F2A95E2F7982F898189230F90BB
:100240000F90DF91CF910895CF93DF9300D000D02E
:10025000CDB7DEB769837A838B839C8389819A814A
:10026000AB81BC8180930E0190930F01A09310018C
:10027000B093110180910E0190910F01A091100196
:10028000B09111018093170190931801A093190167
:10029000B0931A0100000F900F900F900F90DF9114
:1002A000CF910895CF93DF93CDB7DEB781E890E08B
:1002B0002BE0FC01208388E890E02DE730E0FC0192
:1002C000318320838FE690E022E0FC01208384E8E4
:1002D00090E0FC011182108280910E0190910F013B
:1002E000A0911001B0911101809317019093180112
:1002F000A0931901B0931A018FE590E02FE530E04B
:10030000F90120812068FC0120830000DF91CF915A
:100310000895CF93DF93CDB7DEB781E890E0FC017D
:1003200010820000DF91CF910895CF93DF93CDB776
:10033000DEB781E0809316010000DF91CF91089530
:100340001F920F9200905F000F92112400905B00AB
:100350000F922F933F934F935F936F937F938F935E
:100360009F93AF93BF93EF93FF93CF93DF93CDB75B
:10037000DEB78091170190911801A0911901B091F9
:100380001A010197A109B1098093170190931801EF
:10039000A0931901B0931A0180911701909118014F
:1003A000A0911901B0911A01892B8A2B8B2B91F402
:1003B0000E94950180910E0190910F01A091100172
:1003C000B09111018093170190931801A093190126
:1003D000B0931A010000DF91CF91FF91EF91BF918F
:1003E000AF919F918F917F916F915F914F913F91CD
:1003F0002F910F9000925B000F9000925F000F9082
:100400001F901895CF93DF9300D0CDB7DEB79A83B6
:10041000898388E290E020911201FC0120838BE225
:1004200090E020911301FC01208389819A810F9033
:100430000F90DF91CF910895CF93DF9300D0CDB788
:10044000DEB79A83898389819A81892B19F01A8270
:10045000198201C0000089819A81892B09F026C088
:10046000809114018F3E59F480911501813039F447
:1004700080E8809315018EEF8093140116C080915F
:100480001501813069F480E8809315018091140191
:10049000882F90E0880F991F81608093140105C018
:1004A00080911501869580931501000088E290E007
:1004B00020911501FC0120838BE290E02091140132
:1004C000FC01208389819A810F900F90DF91CF9159
:1004D00008950F931F93CF93DF93CDB7DEB72B977C
:1004E0000FB6F894DEBF0FBECDBF87E290E02FEFCE
:1004F000FC01208388E290E0FC0110828AE290E017
:100500002FEFFC0120838BE290E0FC0110828BE155
:1005100091E09B878A8781E090E098878F838FEFB7
:100520008987898580931B0184E690E0A0E0B0E094
:1005300080931C0190931D01A0931E01B0931F0195
:1005400080911C0190911D01A0911E01B0911F018D
:100550008093200190932101A0932201B093230165
:1005600082E092E090932501809324018A859B8507
:10057000FC0181819281A381B4818B839C83AD83B3
:10058000BE8381E090E09A83898325C089819A8126
:10059000880F991F9E012F5F3F4F820F931F09966F
:1005A000FC0180819181FC01218132814381548150
:1005B0008B819C81AD81BE81BC01CD010E949000E8
:1005C000DC01CB018B839C83AD83BE8389819A81BF
:1005D00001969A83898329813A818F81988528178A
:1005E0003907A0F28B819C81AD81BE81BC01CD0118
:1005F0000E9424010E9452011A821982A0C089819E
:100600009A81880F991F9E012F5F3F4F820F931F82
:100610000996FC0180819181FC0125813681478109
:10062000508589819A81880F991FBE016F5F7F4F26
:10063000860F971F0996FC0180819181FC018181C1
:100640009281A381B481281739074A075B0709F013
:1006500045C089819A81880F991F9E012F5F3F4F66
:10066000820F931F0996FC010081118189819A8173
:10067000880F991F9E012F5F3F4F820F931F09968E
:10068000FC0180819181FC012185328589819A81DB
:10069000880F991FAE014F5F5F4F840F951F09961A
:1006A000FC0180819181FC018081082E000C990B56
:1006B000F9010995F801808389819A81880F991F32
:1006C0009E012F5F3F4F820F931F0996FC0180818F
:1006D0009181FC01158216821782108689819A8188
:1006E000880F991F9E012F5F3F4F820F931F09961E
:1006F000FC016081718189819A81880F991F9E0117
:100700002F5F3F4F820F931F0996FC0180819181DB
:10071000FC0125813681478150858B819C81AD818B
:10072000BE81820F931FA41FB51FFB018583968393
:10073000A783B08789819A8101969A8389832981C9
:100740003A818F8198852817390708F458CF00001F
:10075000809116018823E1F3109216014DCFA1E29A
:100760001A2EAA1BBB1BFD010DC0AA1FBB1FEE1F2B
:10077000FF1FA217B307E407F50720F0A21BB30B76
:10078000E40BF50B661F771F881F991F1A9469F7F2
:1007900060957095809590959B01AC01BD01CF014E
:0607A0000895F894FFCF5C
:1007A60000000002000000006700000000000100D9
:0607B600000080FEFE8041
:00000001FF
