:100000000C9446000C9465000C9465000C946500FB
:100010000C9465000C9465000C9465000C946500CC
:100020000C9465000C9465000C9465000C946500BC
:100030000C9465000C94A0010C9465000C94650070
:100040000C9465000C9465000C9465000C9465009C
:100050000C9465000C9465000C9465000C9465008C
:100060000C9465000C9465000C9465000C9465007C
:100070000C9465000C9465000C9465000C9465006C
:100080000C9465000C9465000C94650011241FBE4F
:10009000CFEFD0E4DEBFCDBF11E0A0E0B1E0E2EAF7
:1000A000F0E100E00BBF02C007900D92A032B10753
:1000B000D9F721E0A0E2B1E001C01D92A537B20757
:1000C000E1F70E945E050C944F080C940000CF935A
:1000D000DF9300D01F92CDB7DEB789837B836A831D
:1000E00089818A3031F48A819B81BC018DE00E9434
:1000F000670080EC90E0FC018081882F90E08072A6
:100100009927892BB1F386EC90E02981FC012083AB
:1001100080E090E00F900F900F90DF91CF910895C5
:10012000CF93DF93CDB7DEB72C970FB6F894DEBF31
:100130000FBECDBF6D837E838F83988729873A87D3
:100140004B875C878D819E81AF81B88529853A85F3
:100150004B855C85BC01CD010E947E07DC01CB0193
:1001600089839A83AB83BC8389819A81AB81BC816B
:10017000892B8A2B8B2B29F489859A85AB85BC85A5
:1001800011C089859A85AB85BC858D839E83AF839D
:10019000B88789819A81AB81BC8189879A87AB872F
:1001A000BC87D0CFBC01CD012C960FB6F894DEBF32
:1001B0000FBECDBFDF91CF910895CF93DF9300D0D5
:1001C0001F92CDB7DEB789836A834B838B818823E7
:1001D00071F08A81282F30E081E090E002C0880F22
:1001E000991F2A95E2F7982F8981892B0EC08A8161
:1001F000282F30E081E090E002C0880F991F2A95F7
:10020000E2F7982F9095898189230F900F900F9096
:10021000DF91CF910895CF93DF9300D0CDB7DEB7B4
:1002200089836A838A81282F30E081E090E002C0D0
:10023000880F991F2A95E2F7982F898189230F90BB
:100240000F90DF91CF910895CF93DF9300D000D02E
:10025000CDB7DEB769837A838B839C8389819A814A
:10026000AB81BC8180930E0190930F01A09310018C
:10027000B093110180910E0190910F01A091100196
:10028000B09111018093210190932201A093230149
:10029000B093240100000F900F900F900F90DF910A
:1002A000CF910895CF93DF93CDB7DEB781E890E08B
:1002B0002BE0FC01208388E890E02DE730E0FC0192
:1002C000318320838FE690E022E0FC01208384E8E4
:1002D00090E0FC011182108280910E0190910F013B
:1002E000A0911001B09111018093210190932201FE
:1002F000A0932301B09324018FE590E02FE530E037
:10030000F90120812068FC0120830000DF91CF915A
:100310000895CF93DF93CDB7DEB781E890E0FC017D
:1003200010820000DF91CF910895CF93DF93CDB776
:10033000DEB781E0809320010000DF91CF91089526
:100340001F920F9200905F000F92112400905B00AB
:100350000F922F933F934F935F936F937F938F935E
:100360009F93AF93BF93EF93FF93CF93DF93CDB75B
:10037000DEB78091210190912201A0912301B091DB
:1003800024010197A109B1098093210190932201D1
:10039000A0932301B0932401809121019091220127
:1003A000A0912301B0912401892B8A2B8B2B91F4EE
:1003B0000E94950180910E0190910F01A091100172
:1003C000B09111018093210190932201A093230108
:1003D000B09324010000DF91CF91FF91EF91BF9185
:1003E000AF919F918F917F916F915F914F913F91CD
:1003F0002F910F9000925B000F9000925F000F9082
:100400001F901895CF93DF9300D0CDB7DEB79A83B6
:10041000898380E290E0FC018081882F90E08170E8
:10042000992721E0892B09F020E0822F8093620137
:1004300080E290E0FC018081882F90E08470992711
:1004400021E0892B09F020E0822F80936A018981C5
:100450009A818230910509F44CC0833091052CF4C7
:10046000009779F00197E9F092C08430910509F482
:1004700067C0843091050CF455C0059709F479C024
:1004800086C080916201882349F0809161018823B0
:1004900029F081E090E09A8389837CC01A821982D6
:1004A00079C080916201882369F080916A01882374
:1004B00049F480916101882329F082E090E09A83D9
:1004C000898316C080916A01882369F08091620156
:1004D000882349F480916101882329F084E090E029
:1004E0009A83898305C081E090E09A83898352C012
:1004F00051C080916201882339F01092660183E037
:1005000090E09A83898346C080916601853028F007
:1005100081E090E09A8389833DC082E090E09A83F5
:10052000898338C080916601853028F081E090E0B1
:100530009A8389832FC083E090E09A8389832AC0BD
:1005400080916A01882339F010926E0185E090E075
:100550009A8389831FC080916E01853028F081E0E5
:1005600090E09A83898316C084E090E09A8389831F
:1005700011C080916E01853028F081E090E09A836F
:10058000898308C085E090E09A83898303C01A823A
:100590001982000089819A8182309105A9F1833006
:1005A00091052CF4009771F00197D9F07DC084304B
:1005B000910509F451C084309105D4F1059709F4EF
:1005C0005FC072C084E080936B0182E080935F0122
:1005D00080916B018093600180915F01809368013D
:1005E00063C01092660110926E0184E080936B01EB
:1005F00082E080935F0180916B0180936001809124
:100600005F018093680150C0809166018F5F809385
:10061000660188E080936B0182E080935F018091A6
:100620006B018093600180915F01809368013CC001
:10063000809166018F5F8093660180E180936B01FA
:1006400082E080935F0180916B01809360018091D3
:100650005F018093680128C080916E018F5F809355
:100660006E0182E080936B0182E080935F01809154
:100670006B018093600180915F018093680114C0D9
:1006800080916E018F5F80936E0181E080936B019A
:1006900082E080935F0180916B0180936001809183
:1006A0005F0180936801000089819A810F900F900B
:1006B000DF91CF910895CF93DF9300D0CDB7DEB710
:1006C0009A83898389819A818130910571F0823082
:1006D000910581F0892BD1F4809161018823C9F0C3
:1006E00081E090E09A83898314C082E090E09A834D
:1006F000898310C080912501882329F082E090E051
:100700009A83898307C01A82198204C01A821982C7
:1007100001C0000089819A818130910561F18230A8
:10072000910509F456C0892B09F068C00E94FF07A3
:1007300024E630E0B9010E946A078093630180914A
:100740006301833310F081E001C08FEF8093670174
:100750000E94FF0724E630E0B9010E946A078093F7
:10076000700180917001833310F083E001C084E058
:1007700080936F0143C081E08093250180E88093DE
:10078000690180916F01833061F48091670181304C
:1007900021F48CE180936C0113C087E080936C019D
:1007A0000FC080916F01843059F4809167018130CE
:1007B00021F48EE180936C0103C08FE080936C0183
:1007C00080916C0180936001809169018093680140
:1007D00015C080916901813031F080916901869561
:1007E0008093690102C01092250180916C01809371
:1007F00060018091690180936801000089819A817C
:100800000F900F90DF91CF910895CF93DF9300D099
:10081000CDB7DEB79A83898380E290E0FC018081C6
:10082000882F90E08170992721E0892B09F020E042
:10083000822F80936D0189819A818130910589F0A1
:100840008230910529F1892B79F580916D018823FA
:1008500029F081E090E09A83898329C01A82198265
:1008600026C090915F0180916901981761F4909181
:100870006B0180916C018923882329F082E090E04C
:100880009A83898314C081E090E09A8389830FC0A2
:1008900080916D01882319F01A82198208C082E0C4
:1008A00090E09A83898303C01A82198200008981AB
:1008B0009A818130910561F08230910569F0892B30
:1008C000A1F41092600110926801109261010DC0B4
:1008D00081E08093610109C0109261018FEF8093E4
:1008E00060018FEF80936801000089819A810F90E9
:1008F0000F90DF91CF9108950F931F93CF93DF93C4
:1009000000D0CDB7DEB79A83898389819A818130FF
:10091000910589F082309105E1F0892B31F58091C4
:100920006101882329F081E090E09A83898320C0C7
:100930001A8219821DC080916101882329F081E00B
:1009400090E09A83898314C082E090E09A8389833F
:100950000FC080916101882319F01A82198208C0A2
:1009600082E090E09A83898303C01A821982000092
:1009700089819A8181309105B9F082309105F1F039
:10098000892B09F041C005E210E085E290E0FC010E
:10099000808140E060E00E94DD00F80180831092D9
:1009A00065011092640130C08091640190916501ED
:1009B0000196909365018093640126C020916401A3
:1009C000309165018091260190912701821793074C
:1009D000D0F48091640190916501892BA1F005E22A
:1009E00010E085E290E0FC01808141E060E00E943F
:1009F000DD00F801808380916401909165019093FE
:100A0000270180932601000089819A810F900F9021
:100A1000DF91CF911F910F910895CF93DF9300D075
:100A200000D000D0CDB7DEB79E838D831E821D829D
:100A300000001A82198232C01C821B8226C088E202
:100A400090E021E030E00B8002C0220F331F0A94B7
:100A5000E2F7322F209168012323FC0120838BE2EF
:100A600090E021E030E0098002C0220F331F0A9499
:100A7000E2F7322F2091600123232095FC0120838F
:100A80008B819C8101969C838B838B819C810897B1
:100A9000B4F289819A8101969A83898389819A81A6
:100AA000059754F200008D819E8126960FB6F8942A
:100AB000DEBF0FBECDBFDF91CF9108950F931F937F
:100AC000CF93DF93CDB7DEB763970FB6F894DEBF51
:100AD0000FBECDBF80E090E00E945707DC01CB0144
:100AE0000E94030881E290E0FC01108282E290E023
:100AF0002FE0FC01208384E290E02FEFFC012083B3
:100B000085E290E0FC01108287E290E02FEFFC018B
:100B1000208388E290E0FC0110828AE290E02FEFCF
:100B2000FC0120838BE290E0FC0110828AE0E6E188
:100B3000F1E0DE011A9601900D928A95E1F785E0C9
:100B400090E098878F838FEF89878985809328012C
:100B500088EC90E0A0E0B0E08093290190932A0116
:100B6000A0932B01B0932C018091290190912A012F
:100B7000A0912B01B0912C0180932D0190932E0117
:100B8000A0932F01B093300182E092E09093320164
:100B90008093310189858093330184EF91E0A0E057
:100BA000B0E08093340190933501A0933601B09367
:100BB00037018091340190913501A0913601B091B7
:100BC00037018093380190933901A0933A01B09393
:100BD0003B018BE593E090933D0180933C01898537
:100BE00080933E0184E690E0A0E0B0E080933F0176
:100BF00090934001A0934101B093420180913F0145
:100C000090914001A0914101B09142018093430134
:100C100090934401A0934501B093460185E094E090
:100C2000909348018093470189858093490184E628
:100C300090E0A0E0B0E080934A0190934B01A09334
:100C40004C01B0934D0180914A0190914B01A091CC
:100C50004C01B0914D0180934E0190934F01A093B0
:100C60005001B09351018CE794E09093530180932D
:100C7000520189858093540181E090E0A0E0B0E0CA
:100C80008093550190935601A0935701B09358015A
:100C90008091550190915601A0915701B091580152
:100CA0008093590190935A01A0935B01B0935C012A
:100CB0008DE095E090935E0180935D018A859B8530
:100CC000FC0181819281A381B4818B839C83AD835C
:100CD000BE8381E090E09A83898325C089819A81CF
:100CE000880F991F9E012F5F3F4F820F931F099618
:100CF000FC0180819181FC012181328143815481F9
:100D00008B819C81AD81BE81BC01CD010E94900090
:100D1000DC01CB018B839C83AD83BE8389819A8167
:100D200001969A83898329813A818F819885281732
:100D30003907A0F28B819C81AD81BE81BC01CD01C0
:100D40000E9424010E9452011A821982A0C0898146
:100D50009A81880F991F9E012F5F3F4F820F931F2B
:100D60000996FC0180819181FC01258136814781B2
:100D7000508589819A81880F991FBE016F5F7F4FCF
:100D8000860F971F0996FC0180819181FC0181816A
:100D90009281A381B481281739074A075B0709F0BC
:100DA00045C089819A81880F991F9E012F5F3F4F0F
:100DB000820F931F0996FC010081118189819A811C
:100DC000880F991F9E012F5F3F4F820F931F099637
:100DD000FC0180819181FC012185328589819A8184
:100DE000880F991FAE014F5F5F4F840F951F0996C3
:100DF000FC0180819181FC018081082E000C990BFF
:100E0000F9010995F801808389819A81880F991FDA
:100E10009E012F5F3F4F820F931F0996FC01808137
:100E20009181FC01158216821782108689819A8130
:100E3000880F991F9E012F5F3F4F820F931F0996C6
:100E4000FC016081718189819A81880F991F9E01BF
:100E50002F5F3F4F820F931F0996FC018081918184
:100E6000FC0125813681478150858B819C81AD8134
:100E7000BE81820F931FA41FB51FFB01858396833C
:100E8000A783B08789819A8101969A838983298172
:100E90003A818F8198852817390708F458CF0000C8
:100EA000809120018823E1F3109220014DCFFC01B5
:100EB0000FB6F89460917101709172018091730185
:100EC000909174010FBE309721F06083718382830B
:100ED0009383089597FB072E16F4009407D077FDAF
:100EE00009D00E94A00707FC05D03EF4909581959B
:100EF0009F4F0895709561957F4F0895A1E21A2E36
:100F0000AA1BBB1BFD010DC0AA1FBB1FEE1FFF1FAD
:100F1000A217B307E407F50720F0A21BB30BE40BFD
:100F2000F50B661F771F881F991F1A9469F7609544
:100F30007095809590959B01AC01BD01CF010895FE
:100F4000AA1BBB1B51E107C0AA1FBB1FA617B707EF
:100F500010F0A61BB70B881F991F5A95A9F780950B
:100F60009095BC01CD0108958F929F92AF92BF9250
:100F7000CF92DF92EF92FF92CF93DF93EC016881E3
:100F800079818A819B81611571058105910521F423
:100F900064E279ED8BE597E02DE133EF41E050E03D
:100FA0000E940E0849015A019B01AC01A7EAB1E475
:100FB0000E942D086B017C01ACEEB4EFA5019401F9
:100FC0000E943B08DC01CB018C0D9D1DAE1DBF1D99
:100FD000B7FF03C00197A109B04888839983AA830A
:100FE000BB839F77DF91CF91FF90EF90DF90CF9001
:100FF000BF90AF909F908F9008950C94B40782E1BA
:1010000091E00C94B407A0E0B0E0809312019093BB
:101010001301A0931401B09315010895052E97FBB9
:101020001EF400940E94250857FD07D00E947E07F9
:1010300007FC03D04EF40C9425085095409530954C
:1010400021953F4F4F4F5F4F089590958095709534
:1010500061957F4F8F4F9F4F08950E944008A59F35
:10106000900DB49F900DA49F800D911D11240895A3
:10107000B7FF0C942D080E942D08821B930B089536
:10108000A29FB001B39FC001A39F700D811D1124C9
:10109000911DB29F700D811D1124911D0895F8942A
:0210A000FFCF80
:1010A20000000002000000006700000000000100D4
:1010B200000001000000280133013E0149015401F2
:040000050080016D09
:00000001FF
