:100000000C944D000C946C000C946C000C946C00DF
:100010000C946C000C946C000C946C000C946C00B0
:100020000C946C000C946C000C946C000C946C00A0
:100030000C946C000C94E5000C946C000C946C0017
:100040000C946C000C946C000C946C000C946C0080
:100050000C946C000C946C000C946C000C946C0070
:100060000C946C000C946C000C946C000C946C0060
:100070000C946C000C946C000C946C000C946C0050
:100080000C946C000C946C000C946C008F019F011C
:10009000F9017C02EC022402AB0211241FBECFEF57
:1000A000D0E4DEBFCDBF11E0A0E0B1E0EEEEF6E0BF
:1000B00000E00BBF02C007900D92A231B107D9F743
:1000C00021E0A2E1B1E001C01D92AB31B207E1F73E
:1000D0000E9418030C9475030C940000CF93DF93D7
:1000E00000D01F92CDB7DEB789837B836A83898175
:1000F0008A3031F48A819B81BC018DE00E946E00C0
:1001000080EC90E0FC018081882F90E0807299273C
:10011000892BB1F386EC90E02981FC01208380E0FB
:1001200090E00F900F900F90DF91CF910895CF93B3
:10013000DF93CDB7DEB781E0809312010000DF913D
:10014000CF910895CF93DF93CDB7DEB781E890E0EC
:100150002BE0FC01208388E890E02DE730E0FC01F3
:10016000318320838FE690E022E0FC01208384E845
:1001700090E0FC011182108280910E0190910F019C
:10018000A0911001B091110180931301909314017B
:10019000A0931501B09316018FE590E02FE530E0B4
:1001A000F90120812068FC0120830000DF91CF91BC
:1001B0000895CF93DF93CDB7DEB781E890E0FC01DF
:1001C00010820000DF91CF9108951F920F9200904E
:1001D0005F000F92112400905B000F922F933F93CA
:1001E0004F935F936F937F938F939F93AF93BF933F
:1001F000EF93FF93CF93DF93CDB7DEB780911301D9
:1002000090911401A0911501B09116010197A109D7
:10021000B1098093130190931401A0931501B09339
:1002200016018091130190911401A0911501B091D4
:100230001601892B8A2B8B2B91F40E9497008091B9
:100240000E0190910F01A0911001B09111018093C6
:10025000130190931401A0931501B09316010000AF
:10026000DF91CF91FF91EF91BF91AF919F918F91CE
:100270007F916F915F914F913F912F910F900092DD
:100280005B000F9000925F000F901F901895CF9326
:10029000DF9300D000D0CDB7DEB769837A838B833C
:1002A0009C8389819A81AB81BC8180930E0190935C
:1002B0000F01A0931001B093110180910E01909154
:1002C0000F01A0911001B09111018093130190933F
:1002D0001401A0931501B093160100000F900F9028
:1002E0000F900F90DF91CF910895CF93DF93CDB70B
:1002F000DEB78091190190911A01CC01A0E0B0E025
:1003000040E050E026E030E0841B950B28173907C9
:1003100008F484C18A5B9F4FFC010C94580310922F
:1003200018011092170185E290E027E0FC0120837C
:1003300081E090E090931A018093190175C11092A9
:1003400018011092170180E290E0FC018081882F53
:1003500090E08095909583709927039759F485E2F2
:1003600090E0FC01108284E090E090931A01809369
:10037000190159C180E290E0FC018081882F90E052
:1003800081709927892BA9F485E290E0FC01808196
:10039000893008F048C185E290E0FC0120812F5FA0
:1003A000FC01208382E090E090931A018093190170
:1003B0003AC180E290E0FC018081882F90E0827059
:1003C0009927892B09F02FC185E290E0FC018081FB
:1003D000882309F428C185E290E0FC0120812150A6
:1003E000FC01208383E090E090931A01809319012F
:1003F0001AC180E290E0FC018081882F90E0809516
:10040000909583709927039739F484E090E0909356
:100410001A018093190108C180E290E0FC018081FB
:10042000882F90E081709927892B39F485E090E03E
:1004300090931A0180931901F7C081E090E09093A6
:100440001A0180931901F0C080E290E0FC018081E4
:10045000882F90E08095909583709927039759F4A1
:1004600085E290E0FC01108284E090E090931A0114
:1004700080931901D9C080E290E0FC018081882F2F
:1004800090E081709927892B81F5809117019091D7
:10049000180101969093180180931701809117011C
:1004A000909118012AE030E0B9010E944403909332
:1004B0001801809317018091170190911801892BE1
:1004C00069F485E290E0FC018081893038F485E2AE
:1004D00090E0FC0120812F5FFC01208385E090E00B
:1004E00090931A01809319019FC081E090E090934E
:1004F0001A018093190198C080E290E0FC0180818C
:10050000882F90E08095909583709927039759F4F0
:1005100085E290E0FC01108284E090E090931A0163
:100520008093190181C080E290E0FC018081882FD6
:1005300090E082709927892B39F486E090E09093BF
:100540001A018093190170C081E090E090931A0124
:100550008093190169C080E290E0FC018081882FBE
:1005600090E082709927892B81F5809117019091F5
:10057000180101969093180180931701809117013B
:10058000909118012AE030E0B9010E944403909351
:100590001801809317018091170190911801892B00
:1005A00069F485E290E0FC018081882339F085E2DE
:1005B00090E0FC0120812150FC01208386E090E046
:1005C00090931A01809319012FC081E090E09093DD
:1005D0001A018093190128C0109218011092170176
:1005E00085E290E0FC01108280E290E0FC018081D5
:1005F000882F90E08095909583709927892B39F406
:1006000081E090E090931A01809319010DC084E07D
:1006100090E090931A018093190106C010921A017C
:100620001092190101C000000000DF91CF910895E0
:10063000CF93DF93CDB7DEB781E290E0FC0110826B
:1006400082E290E02FEFFC01208384E290E02FEF24
:10065000FC01208385E290E0FC01108210921A01D7
:100660001092190164E670E080E090E00E9447017A
:100670000E94A2000E94750100008091120188234F
:10068000E1F310921201F6CF97FB072E16F40094B7
:1006900007D077FD09D00E94610307FC05D03EF426
:1006A000909581959F4F0895709561957F4F08951E
:1006B000EE0FFF1F0024001C0BBE0790F691E02DEB
:1006C0000994AA1BBB1B51E107C0AA1FBB1FA61799
:1006D000B70710F0A61BB70B881F991F5A95A9F7EB
:0E06E00080959095BC01CD010895F894FFCF50
:1006EE0000000002000000006E000000000001008B
:0206FE000000FA
:00000001FF
